
KEY_1                           STAT TEXT                                                                                                                                                                                                     TEXT_LENGTH TEXT_BOUND_LEN
------------------------------- ---- -------------------------------------------------------------------------------------------------------------------------------------------------------------------------------------------------------- ----------- --------------
002ERM   0100000000000079500001 0    RECORD NOT FOUND OR INVALID TRANSACTION RESTRICTION                                                                                                                                                      050         000           
002ERM   0100000000000081310001 0    TRANSACTION RESTRICTED ON THE BASIS OF DAY                                                                                                                                                               041         000           
002ERM   0100000000000081610001 0    TRANSACTION RESTRICTED ON BASIS OF TIME                                                                                                                                                                  038         000           
002ERM   0100000000000081590001 0    TRANSACTION RESTRICTED ON THE BASIS OF BRANCH GROUP                                                                                                                                                      050         000           
002ERM   0100000000000081600001 0    TRANSACTION RESTRICTED ON THE BASIS OF DATE                                                                                                                                                              042         000           
002ERM   0100000000000081620001 0    FROM TIME FOR TRANSACTION RESTRICTION NOT ENTERED                                                                                                                                                        048         000           
002ERM   0100000000000081670001 0    TO TIME FOR TRANSACTION RESTRICTION NOT ENTERED                                                                                                                                                          046         000           
002ERM   0300000000000005600001 0    ATM TRANSACTION - RESUBMITTED (CHECK)                                                                                                                                                                    037         000           
002ERM   0300000000000016240001 0    SWIFT TRANSACTION - RESUBMITTED (CHECK)                                                                                                                                                                  039         000           
002ERM   0300000000000017870001 0    TRANSACTION DATE IS BEFORE ACCOUNT OPEN DATE OR INTEREST START DATE                                                                                                                                      067         000           
001ERM   0100000000000005600001 0    ATM TRANSACTION - RESUBMITTED (CHECK)                                                                                                                                                                    037         000           
001ERM   0100000000000016240001 0    SWIFT TRANSACTION - RESUBMITTED (CHECK)                                                                                                                                                                  039         000           
001ERM   0100000000000017870001 0    TRANSACTION DATE IS BEFORE ACCOUNT OPEN DATE OR INTEREST START DATE                                                                                                                                      067         000           
002ERM   0300000000000079500001 0    RECORD NOT FOUND OR INVALID TRANSACTION RESTRICTION                                                                                                                                                      050         000           
002ERM   0300000000000081310001 0    TRANSACTION RESTRICTED ON THE BASIS OF DAY                                                                                                                                                               041         000           
002ERM   0300000000000081590001 0    TRANSACTION RESTRICTED ON THE BASIS OF BRANCH GROUP                                                                                                                                                      050         000           
002ERM   0300000000000081600001 0    TRANSACTION RESTRICTED ON THE BASIS OF DATE                                                                                                                                                              042         000           
002ERM   0300000000000081610001 0    TRANSACTION RESTRICTED ON BASIS OF TIME                                                                                                                                                                  038         000           
002ERM   0300000000000081620001 0    FROM TIME FOR TRANSACTION RESTRICTION NOT ENTERED                                                                                                                                                        048         000           
002ERM   0300000000000081670001 0    TO TIME FOR TRANSACTION RESTRICTION NOT ENTERED                                                                                                                                                          046         000           
002GL01710100000000000000010004 0    TRANSACTION      SWIFT FUNDING DETAIL    SWIFT REMITTANCE DETAIL SWIFT BENEFICIARY    CORRES       EQUIVALENT          BRANCH TELLER                                                                     132         000           
002REPL100100000000000000010055 0    HOST TRANSACTION TAKEUP RESPONSE TIME                                                                                                                                                                    037         000           
001ERM   0100000000000079500001 0    RECORD NOT FOUND OR INVALID TRANSACTION RESTRICTION                                                                                                                                                      050         000           
001ERM   0100000000000081310001 0    TRANSACTION RESTRICTED ON THE BASIS OF DAY                                                                                                                                                               041         000           
001ERM   0100000000000081590001 0    TRANSACTION RESTRICTED ON THE BASIS OF BRANCH GROUP                                                                                                                                                      050         000           
001ERM   0100000000000081600001 0    TRANSACTION RESTRICTED ON THE BASIS OF DATE                                                                                                                                                              042         000           
001ERM   0100000000000081610001 0    TRANSACTION RESTRICTED ON BASIS OF TIME                                                                                                                                                                  038         000           
001ERM   0100000000000081620001 0    FROM TIME FOR TRANSACTION RESTRICTION NOT ENTERED                                                                                                                                                        048         000           
001ERM   0100000000000081670001 0    TO TIME FOR TRANSACTION RESTRICTION NOT ENTERED                                                                                                                                                          046         000           
001ERM   0300000000000005600001 0    ATM TRANSACTION - RESUBMITTED (CHECK)                                                                                                                                                                    037         000           
001ERM   0300000000000016240001 0    SWIFT TRANSACTION - RESUBMITTED (CHECK)                                                                                                                                                                  039         000           
001ERM   0300000000000017870001 0    TRANSACTION DATE IS BEFORE ACCOUNT OPEN DATE OR INTEREST START DATE                                                                                                                                      067         000           
001ERM   0300000000000079500001 0    RECORD NOT FOUND OR INVALID TRANSACTION RESTRICTION                                                                                                                                                      050         000           
001ERM   0300000000000081310001 0    TRANSACTION RESTRICTED ON THE BASIS OF DAY                                                                                                                                                               041         000           
001ERM   0300000000000081590001 0    TRANSACTION RESTRICTED ON THE BASIS OF BRANCH GROUP                                                                                                                                                      050         000           
001ERM   0300000000000081600001 0    TRANSACTION RESTRICTED ON THE BASIS OF DATE                                                                                                                                                              042         000           
001ERM   0300000000000081610001 0    TRANSACTION RESTRICTED ON BASIS OF TIME                                                                                                                                                                  038         000           
001ERM   0300000000000081620001 0    FROM TIME FOR TRANSACTION RESTRICTION NOT ENTERED                                                                                                                                                        048         000           
001ERM   0300000000000081670001 0    TO TIME FOR TRANSACTION RESTRICTION NOT ENTERED                                                                                                                                                          046         000           
001GL01710100000000000000010004 0    TRANSACTION      SWIFT FUNDING DETAIL    SWIFT REMITTANCE DETAIL SWIFT BENEFICIARY    CORRES       EQUIVALENT          BRANCH TELLER                                                                     132         000           
001REPL100100000000000000010055 0    HOST TRANSACTION TAKEUP RESPONSE TIME                                                                                                                                                                    037         000           
002ERM   0100000000000005600001 0    ATM TRANSACTION - RESUBMITTED (CHECK)                                                                                                                                                                    037         000           
002ERM   0100000000000016240001 0    SWIFT TRANSACTION - RESUBMITTED (CHECK)                                                                                                                                                                  039         000           
002ERM   0100000000000017870001 0    TRANSACTION DATE IS BEFORE ACCOUNT OPEN DATE OR INTEREST START DATE                                                                                                                                      067         000           

  44 record(s) selected.
